{
	"contracts/fundMe.sol": {
		"FundMe": {
			"abi": [
				{
					"inputs": [
						{
							"internalType": "address",
							"name": "",
							"type": "address"
						}
					],
					"name": "addressToAmountFunded",
					"outputs": [
						{
							"internalType": "uint256",
							"name": "",
							"type": "uint256"
						}
					],
					"stateMutability": "view",
					"type": "function"
				},
				{
					"inputs": [],
					"name": "fund",
					"outputs": [],
					"stateMutability": "payable",
					"type": "function"
				},
				{
					"inputs": [
						{
							"internalType": "uint256",
							"name": "ethAmount",
							"type": "uint256"
						}
					],
					"name": "getConversionRate",
					"outputs": [
						{
							"internalType": "uint256",
							"name": "",
							"type": "uint256"
						}
					],
					"stateMutability": "view",
					"type": "function"
				},
				{
					"inputs": [],
					"name": "getPrice",
					"outputs": [
						{
							"internalType": "uint256",
							"name": "",
							"type": "uint256"
						}
					],
					"stateMutability": "view",
					"type": "function"
				},
				{
					"inputs": [],
					"name": "getVersion",
					"outputs": [
						{
							"internalType": "uint256",
							"name": "",
							"type": "uint256"
						}
					],
					"stateMutability": "view",
					"type": "function"
				}
			],
			"devdoc": {
				"kind": "dev",
				"methods": {},
				"version": 1
			},
			"evm": {
				"assembly": "    /* \"contracts/fundMe.sol\":613:1705  contract FundMe{... */\n  mstore(0x40, 0x80)\n  callvalue\n  dup1\n  iszero\n  tag_1\n  jumpi\n  0x00\n  dup1\n  revert\ntag_1:\n  pop\n  dataSize(sub_0)\n  dup1\n  dataOffset(sub_0)\n  0x00\n  codecopy\n  0x00\n  return\nstop\n\nsub_0: assembly {\n        /* \"contracts/fundMe.sol\":613:1705  contract FundMe{... */\n      mstore(0x40, 0x80)\n      jumpi(tag_1, lt(calldatasize, 0x04))\n      shr(0xe0, calldataload(0x00))\n      dup1\n      0x0d8e6e2c\n      eq\n      tag_2\n      jumpi\n      dup1\n      0x3e47d6f3\n      eq\n      tag_3\n      jumpi\n      dup1\n      0x6e5b6b28\n      eq\n      tag_4\n      jumpi\n      dup1\n      0x98d5fdca\n      eq\n      tag_5\n      jumpi\n      dup1\n      0xb60d4288\n      eq\n      tag_6\n      jumpi\n    tag_1:\n      0x00\n      dup1\n      revert\n        /* \"contracts/fundMe.sol\":813:1019  function getVersion() public view returns(uint256){... */\n    tag_2:\n      callvalue\n      dup1\n      iszero\n      tag_7\n      jumpi\n      0x00\n      dup1\n      revert\n    tag_7:\n      pop\n      tag_8\n      tag_9\n      jump\t// in\n    tag_8:\n      mload(0x40)\n      tag_10\n      swap2\n      swap1\n      tag_11\n      jump\t// in\n    tag_10:\n      mload(0x40)\n      dup1\n      swap2\n      sub\n      swap1\n      return\n        /* \"contracts/fundMe.sol\":635:691  mapping(address => uint256) public addressToAmountFunded */\n    tag_3:\n      callvalue\n      dup1\n      iszero\n      tag_12\n      jumpi\n      0x00\n      dup1\n      revert\n    tag_12:\n      pop\n      tag_13\n      0x04\n      dup1\n      calldatasize\n      sub\n      dup2\n      add\n      swap1\n      tag_14\n      swap2\n      swap1\n      tag_15\n      jump\t// in\n    tag_14:\n      tag_16\n      jump\t// in\n    tag_13:\n      mload(0x40)\n      tag_17\n      swap2\n      swap1\n      tag_11\n      jump\t// in\n    tag_17:\n      mload(0x40)\n      dup1\n      swap2\n      sub\n      swap1\n      return\n        /* \"contracts/fundMe.sol\":1471:1700  function getConversionRate(uint ethAmount) public view returns (uint256){... */\n    tag_4:\n      callvalue\n      dup1\n      iszero\n      tag_18\n      jumpi\n      0x00\n      dup1\n      revert\n    tag_18:\n      pop\n      tag_19\n      0x04\n      dup1\n      calldatasize\n      sub\n      dup2\n      add\n      swap1\n      tag_20\n      swap2\n      swap1\n      tag_21\n      jump\t// in\n    tag_20:\n      tag_22\n      jump\t// in\n    tag_19:\n      mload(0x40)\n      tag_23\n      swap2\n      swap1\n      tag_11\n      jump\t// in\n    tag_23:\n      mload(0x40)\n      dup1\n      swap2\n      sub\n      swap1\n      return\n        /* \"contracts/fundMe.sol\":1027:1463  function getPrice() public view returns(uint256){... */\n    tag_5:\n      callvalue\n      dup1\n      iszero\n      tag_24\n      jumpi\n      0x00\n      dup1\n      revert\n    tag_24:\n      pop\n      tag_25\n      tag_26\n      jump\t// in\n    tag_25:\n      mload(0x40)\n      tag_27\n      swap2\n      swap1\n      tag_11\n      jump\t// in\n    tag_27:\n      mload(0x40)\n      dup1\n      swap2\n      sub\n      swap1\n      return\n        /* \"contracts/fundMe.sol\":700:807  function fund() public payable{... */\n    tag_6:\n      tag_28\n      tag_29\n      jump\t// in\n    tag_28:\n      stop\n        /* \"contracts/fundMe.sol\":813:1019  function getVersion() public view returns(uint256){... */\n    tag_9:\n        /* \"contracts/fundMe.sol\":855:862  uint256 */\n      0x00\n        /* \"contracts/fundMe.sol\":874:905  AggregatorV3Interface priceFeed */\n      dup1\n        /* \"contracts/fundMe.sol\":930:972  0x694AA1769357215DE4FAC081bf1f309aDC325306 */\n      0x694aa1769357215de4fac081bf1f309adc325306\n        /* \"contracts/fundMe.sol\":874:973  AggregatorV3Interface priceFeed = AggregatorV3Interface(0x694AA1769357215DE4FAC081bf1f309aDC325306) */\n      swap1\n      pop\n        /* \"contracts/fundMe.sol\":991:1000  priceFeed */\n      dup1\n        /* \"contracts/fundMe.sol\":991:1008  priceFeed.version */\n      0xffffffffffffffffffffffffffffffffffffffff\n      and\n      0x54fd4d50\n        /* \"contracts/fundMe.sol\":991:1010  priceFeed.version() */\n      mload(0x40)\n      dup2\n      0xffffffff\n      and\n      0xe0\n      shl\n      dup2\n      mstore\n      0x04\n      add\n      0x20\n      mload(0x40)\n      dup1\n      dup4\n      sub\n      dup2\n      dup7\n      gas\n      staticcall\n      iszero\n      dup1\n      iszero\n      tag_32\n      jumpi\n      returndatasize\n      0x00\n      dup1\n      returndatacopy\n      revert(0x00, returndatasize)\n    tag_32:\n      pop\n      pop\n      pop\n      pop\n      mload(0x40)\n      returndatasize\n      not(0x1f)\n      0x1f\n      dup3\n      add\n      and\n      dup3\n      add\n      dup1\n      0x40\n      mstore\n      pop\n      dup2\n      add\n      swap1\n      tag_33\n      swap2\n      swap1\n      tag_34\n      jump\t// in\n    tag_33:\n        /* \"contracts/fundMe.sol\":984:1010  return priceFeed.version() */\n      swap2\n      pop\n      pop\n        /* \"contracts/fundMe.sol\":813:1019  function getVersion() public view returns(uint256){... */\n      swap1\n      jump\t// out\n        /* \"contracts/fundMe.sol\":635:691  mapping(address => uint256) public addressToAmountFunded */\n    tag_16:\n      mstore(0x20, 0x00)\n      dup1\n      0x00\n      mstore\n      keccak256(0x00, 0x40)\n      0x00\n      swap2\n      pop\n      swap1\n      pop\n      sload\n      dup2\n      jump\t// out\n        /* \"contracts/fundMe.sol\":1471:1700  function getConversionRate(uint ethAmount) public view returns (uint256){... */\n    tag_22:\n        /* \"contracts/fundMe.sol\":1535:1542  uint256 */\n      0x00\n        /* \"contracts/fundMe.sol\":1554:1570  uint256 ethPrice */\n      dup1\n        /* \"contracts/fundMe.sol\":1573:1583  getPrice() */\n      tag_36\n        /* \"contracts/fundMe.sol\":1573:1581  getPrice */\n      tag_26\n        /* \"contracts/fundMe.sol\":1573:1583  getPrice() */\n      jump\t// in\n    tag_36:\n        /* \"contracts/fundMe.sol\":1554:1583  uint256 ethPrice = getPrice() */\n      swap1\n      pop\n        /* \"contracts/fundMe.sol\":1594:1616  uint256 ethAmountInUsd */\n      0x00\n        /* \"contracts/fundMe.sol\":1641:1660  1000000000000000000 */\n      0x0de0b6b3a7640000\n        /* \"contracts/fundMe.sol\":1630:1639  ethAmount */\n      dup5\n        /* \"contracts/fundMe.sol\":1620:1628  ethPrice */\n      dup4\n        /* \"contracts/fundMe.sol\":1620:1639  ethPrice *ethAmount */\n      tag_37\n      swap2\n      swap1\n      tag_38\n      jump\t// in\n    tag_37:\n        /* \"contracts/fundMe.sol\":1619:1660  (ethPrice *ethAmount)/1000000000000000000 */\n      tag_39\n      swap2\n      swap1\n      tag_40\n      jump\t// in\n    tag_39:\n        /* \"contracts/fundMe.sol\":1594:1660  uint256 ethAmountInUsd = (ethPrice *ethAmount)/1000000000000000000 */\n      swap1\n      pop\n        /* \"contracts/fundMe.sol\":1678:1692  ethAmountInUsd */\n      dup1\n        /* \"contracts/fundMe.sol\":1671:1692  return ethAmountInUsd */\n      swap3\n      pop\n      pop\n      pop\n        /* \"contracts/fundMe.sol\":1471:1700  function getConversionRate(uint ethAmount) public view returns (uint256){... */\n      swap2\n      swap1\n      pop\n      jump\t// out\n        /* \"contracts/fundMe.sol\":1027:1463  function getPrice() public view returns(uint256){... */\n    tag_26:\n        /* \"contracts/fundMe.sol\":1067:1074  uint256 */\n      0x00\n        /* \"contracts/fundMe.sol\":1088:1119  AggregatorV3Interface priceFeed */\n      dup1\n        /* \"contracts/fundMe.sol\":1144:1186  0x694AA1769357215DE4FAC081bf1f309aDC325306 */\n      0x694aa1769357215de4fac081bf1f309adc325306\n        /* \"contracts/fundMe.sol\":1088:1187  AggregatorV3Interface priceFeed = AggregatorV3Interface(0x694AA1769357215DE4FAC081bf1f309aDC325306) */\n      swap1\n      pop\n        /* \"contracts/fundMe.sol\":1251:1261  int answer */\n      0x00\n        /* \"contracts/fundMe.sol\":1382:1391  priceFeed */\n      dup2\n        /* \"contracts/fundMe.sol\":1382:1407  priceFeed.latestRoundData */\n      0xffffffffffffffffffffffffffffffffffffffff\n      and\n      0xfeaf968c\n        /* \"contracts/fundMe.sol\":1382:1409  priceFeed.latestRoundData() */\n      mload(0x40)\n      dup2\n      0xffffffff\n      and\n      0xe0\n      shl\n      dup2\n      mstore\n      0x04\n      add\n      0xa0\n      mload(0x40)\n      dup1\n      dup4\n      sub\n      dup2\n      dup7\n      gas\n      staticcall\n      iszero\n      dup1\n      iszero\n      tag_43\n      jumpi\n      returndatasize\n      0x00\n      dup1\n      returndatacopy\n      revert(0x00, returndatasize)\n    tag_43:\n      pop\n      pop\n      pop\n      pop\n      mload(0x40)\n      returndatasize\n      not(0x1f)\n      0x1f\n      dup3\n      add\n      and\n      dup3\n      add\n      dup1\n      0x40\n      mstore\n      pop\n      dup2\n      add\n      swap1\n      tag_44\n      swap2\n      swap1\n      tag_45\n      jump\t// in\n    tag_44:\n        /* \"contracts/fundMe.sol\":1201:1409  (... */\n      pop\n      pop\n      pop\n      swap2\n      pop\n      pop\n        /* \"contracts/fundMe.sol\":1443:1454  10000000000 */\n      0x02540be400\n        /* \"contracts/fundMe.sol\":1435:1441  answer */\n      dup2\n        /* \"contracts/fundMe.sol\":1435:1454  answer *10000000000 */\n      tag_46\n      swap2\n      swap1\n      tag_47\n      jump\t// in\n    tag_46:\n        /* \"contracts/fundMe.sol\":1420:1455  return uint256(answer *10000000000) */\n      swap3\n      pop\n      pop\n      pop\n        /* \"contracts/fundMe.sol\":1027:1463  function getPrice() public view returns(uint256){... */\n      swap1\n      jump\t// out\n        /* \"contracts/fundMe.sol\":700:807  function fund() public payable{... */\n    tag_29:\n        /* \"contracts/fundMe.sol\":778:787  msg.value */\n      callvalue\n        /* \"contracts/fundMe.sol\":741:762  addressToAmountFunded */\n      0x00\n        /* \"contracts/fundMe.sol\":741:774  addressToAmountFunded[msg.sender] */\n      dup1\n        /* \"contracts/fundMe.sol\":763:773  msg.sender */\n      caller\n        /* \"contracts/fundMe.sol\":741:774  addressToAmountFunded[msg.sender] */\n      0xffffffffffffffffffffffffffffffffffffffff\n      and\n      0xffffffffffffffffffffffffffffffffffffffff\n      and\n      dup2\n      mstore\n      0x20\n      add\n      swap1\n      dup2\n      mstore\n      0x20\n      add\n      0x00\n      keccak256\n      0x00\n        /* \"contracts/fundMe.sol\":741:787  addressToAmountFunded[msg.sender] += msg.value */\n      dup3\n      dup3\n      sload\n      tag_49\n      swap2\n      swap1\n      tag_50\n      jump\t// in\n    tag_49:\n      swap3\n      pop\n      pop\n      dup2\n      swap1\n      sstore\n      pop\n        /* \"contracts/fundMe.sol\":700:807  function fund() public payable{... */\n      jump\t// out\n        /* \"#utility.yul\":7:84   */\n    tag_51:\n        /* \"#utility.yul\":44:51   */\n      0x00\n        /* \"#utility.yul\":73:78   */\n      dup2\n        /* \"#utility.yul\":62:78   */\n      swap1\n      pop\n        /* \"#utility.yul\":7:84   */\n      swap2\n      swap1\n      pop\n      jump\t// out\n        /* \"#utility.yul\":90:208   */\n    tag_52:\n        /* \"#utility.yul\":177:201   */\n      tag_74\n        /* \"#utility.yul\":195:200   */\n      dup2\n        /* \"#utility.yul\":177:201   */\n      tag_51\n      jump\t// in\n    tag_74:\n        /* \"#utility.yul\":172:175   */\n      dup3\n        /* \"#utility.yul\":165:202   */\n      mstore\n        /* \"#utility.yul\":90:208   */\n      pop\n      pop\n      jump\t// out\n        /* \"#utility.yul\":214:436   */\n    tag_11:\n        /* \"#utility.yul\":307:311   */\n      0x00\n        /* \"#utility.yul\":345:347   */\n      0x20\n        /* \"#utility.yul\":334:343   */\n      dup3\n        /* \"#utility.yul\":330:348   */\n      add\n        /* \"#utility.yul\":322:348   */\n      swap1\n      pop\n        /* \"#utility.yul\":358:429   */\n      tag_76\n        /* \"#utility.yul\":426:427   */\n      0x00\n        /* \"#utility.yul\":415:424   */\n      dup4\n        /* \"#utility.yul\":411:428   */\n      add\n        /* \"#utility.yul\":402:408   */\n      dup5\n        /* \"#utility.yul\":358:429   */\n      tag_52\n      jump\t// in\n    tag_76:\n        /* \"#utility.yul\":214:436   */\n      swap3\n      swap2\n      pop\n      pop\n      jump\t// out\n        /* \"#utility.yul\":523:640   */\n    tag_54:\n        /* \"#utility.yul\":632:633   */\n      0x00\n        /* \"#utility.yul\":629:630   */\n      dup1\n        /* \"#utility.yul\":622:634   */\n      revert\n        /* \"#utility.yul\":769:895   */\n    tag_56:\n        /* \"#utility.yul\":806:813   */\n      0x00\n        /* \"#utility.yul\":846:888   */\n      0xffffffffffffffffffffffffffffffffffffffff\n        /* \"#utility.yul\":839:844   */\n      dup3\n        /* \"#utility.yul\":835:889   */\n      and\n        /* \"#utility.yul\":824:889   */\n      swap1\n      pop\n        /* \"#utility.yul\":769:895   */\n      swap2\n      swap1\n      pop\n      jump\t// out\n        /* \"#utility.yul\":901:997   */\n    tag_57:\n        /* \"#utility.yul\":938:945   */\n      0x00\n        /* \"#utility.yul\":967:991   */\n      tag_82\n        /* \"#utility.yul\":985:990   */\n      dup3\n        /* \"#utility.yul\":967:991   */\n      tag_56\n      jump\t// in\n    tag_82:\n        /* \"#utility.yul\":956:991   */\n      swap1\n      pop\n        /* \"#utility.yul\":901:997   */\n      swap2\n      swap1\n      pop\n      jump\t// out\n        /* \"#utility.yul\":1003:1125   */\n    tag_58:\n        /* \"#utility.yul\":1076:1100   */\n      tag_84\n        /* \"#utility.yul\":1094:1099   */\n      dup2\n        /* \"#utility.yul\":1076:1100   */\n      tag_57\n      jump\t// in\n    tag_84:\n        /* \"#utility.yul\":1069:1074   */\n      dup2\n        /* \"#utility.yul\":1066:1101   */\n      eq\n        /* \"#utility.yul\":1056:1119   */\n      tag_85\n      jumpi\n        /* \"#utility.yul\":1115:1116   */\n      0x00\n        /* \"#utility.yul\":1112:1113   */\n      dup1\n        /* \"#utility.yul\":1105:1117   */\n      revert\n        /* \"#utility.yul\":1056:1119   */\n    tag_85:\n        /* \"#utility.yul\":1003:1125   */\n      pop\n      jump\t// out\n        /* \"#utility.yul\":1131:1270   */\n    tag_59:\n        /* \"#utility.yul\":1177:1182   */\n      0x00\n        /* \"#utility.yul\":1215:1221   */\n      dup2\n        /* \"#utility.yul\":1202:1222   */\n      calldataload\n        /* \"#utility.yul\":1193:1222   */\n      swap1\n      pop\n        /* \"#utility.yul\":1231:1264   */\n      tag_87\n        /* \"#utility.yul\":1258:1263   */\n      dup2\n        /* \"#utility.yul\":1231:1264   */\n      tag_58\n      jump\t// in\n    tag_87:\n        /* \"#utility.yul\":1131:1270   */\n      swap3\n      swap2\n      pop\n      pop\n      jump\t// out\n        /* \"#utility.yul\":1276:1605   */\n    tag_15:\n        /* \"#utility.yul\":1335:1341   */\n      0x00\n        /* \"#utility.yul\":1384:1386   */\n      0x20\n        /* \"#utility.yul\":1372:1381   */\n      dup3\n        /* \"#utility.yul\":1363:1370   */\n      dup5\n        /* \"#utility.yul\":1359:1382   */\n      sub\n        /* \"#utility.yul\":1355:1387   */\n      slt\n        /* \"#utility.yul\":1352:1471   */\n      iszero\n      tag_89\n      jumpi\n        /* \"#utility.yul\":1390:1469   */\n      tag_90\n      tag_54\n      jump\t// in\n    tag_90:\n        /* \"#utility.yul\":1352:1471   */\n    tag_89:\n        /* \"#utility.yul\":1510:1511   */\n      0x00\n        /* \"#utility.yul\":1535:1588   */\n      tag_91\n        /* \"#utility.yul\":1580:1587   */\n      dup5\n        /* \"#utility.yul\":1571:1577   */\n      dup3\n        /* \"#utility.yul\":1560:1569   */\n      dup6\n        /* \"#utility.yul\":1556:1578   */\n      add\n        /* \"#utility.yul\":1535:1588   */\n      tag_59\n      jump\t// in\n    tag_91:\n        /* \"#utility.yul\":1525:1588   */\n      swap2\n      pop\n        /* \"#utility.yul\":1481:1598   */\n      pop\n        /* \"#utility.yul\":1276:1605   */\n      swap3\n      swap2\n      pop\n      pop\n      jump\t// out\n        /* \"#utility.yul\":1611:1733   */\n    tag_60:\n        /* \"#utility.yul\":1684:1708   */\n      tag_93\n        /* \"#utility.yul\":1702:1707   */\n      dup2\n        /* \"#utility.yul\":1684:1708   */\n      tag_51\n      jump\t// in\n    tag_93:\n        /* \"#utility.yul\":1677:1682   */\n      dup2\n        /* \"#utility.yul\":1674:1709   */\n      eq\n        /* \"#utility.yul\":1664:1727   */\n      tag_94\n      jumpi\n        /* \"#utility.yul\":1723:1724   */\n      0x00\n        /* \"#utility.yul\":1720:1721   */\n      dup1\n        /* \"#utility.yul\":1713:1725   */\n      revert\n        /* \"#utility.yul\":1664:1727   */\n    tag_94:\n        /* \"#utility.yul\":1611:1733   */\n      pop\n      jump\t// out\n        /* \"#utility.yul\":1739:1878   */\n    tag_61:\n        /* \"#utility.yul\":1785:1790   */\n      0x00\n        /* \"#utility.yul\":1823:1829   */\n      dup2\n        /* \"#utility.yul\":1810:1830   */\n      calldataload\n        /* \"#utility.yul\":1801:1830   */\n      swap1\n      pop\n        /* \"#utility.yul\":1839:1872   */\n      tag_96\n        /* \"#utility.yul\":1866:1871   */\n      dup2\n        /* \"#utility.yul\":1839:1872   */\n      tag_60\n      jump\t// in\n    tag_96:\n        /* \"#utility.yul\":1739:1878   */\n      swap3\n      swap2\n      pop\n      pop\n      jump\t// out\n        /* \"#utility.yul\":1884:2213   */\n    tag_21:\n        /* \"#utility.yul\":1943:1949   */\n      0x00\n        /* \"#utility.yul\":1992:1994   */\n      0x20\n        /* \"#utility.yul\":1980:1989   */\n      dup3\n        /* \"#utility.yul\":1971:1978   */\n      dup5\n        /* \"#utility.yul\":1967:1990   */\n      sub\n        /* \"#utility.yul\":1963:1995   */\n      slt\n        /* \"#utility.yul\":1960:2079   */\n      iszero\n      tag_98\n      jumpi\n        /* \"#utility.yul\":1998:2077   */\n      tag_99\n      tag_54\n      jump\t// in\n    tag_99:\n        /* \"#utility.yul\":1960:2079   */\n    tag_98:\n        /* \"#utility.yul\":2118:2119   */\n      0x00\n        /* \"#utility.yul\":2143:2196   */\n      tag_100\n        /* \"#utility.yul\":2188:2195   */\n      dup5\n        /* \"#utility.yul\":2179:2185   */\n      dup3\n        /* \"#utility.yul\":2168:2177   */\n      dup6\n        /* \"#utility.yul\":2164:2186   */\n      add\n        /* \"#utility.yul\":2143:2196   */\n      tag_61\n      jump\t// in\n    tag_100:\n        /* \"#utility.yul\":2133:2196   */\n      swap2\n      pop\n        /* \"#utility.yul\":2089:2206   */\n      pop\n        /* \"#utility.yul\":1884:2213   */\n      swap3\n      swap2\n      pop\n      pop\n      jump\t// out\n        /* \"#utility.yul\":2219:2362   */\n    tag_62:\n        /* \"#utility.yul\":2276:2281   */\n      0x00\n        /* \"#utility.yul\":2307:2313   */\n      dup2\n        /* \"#utility.yul\":2301:2314   */\n      mload\n        /* \"#utility.yul\":2292:2314   */\n      swap1\n      pop\n        /* \"#utility.yul\":2323:2356   */\n      tag_102\n        /* \"#utility.yul\":2350:2355   */\n      dup2\n        /* \"#utility.yul\":2323:2356   */\n      tag_60\n      jump\t// in\n    tag_102:\n        /* \"#utility.yul\":2219:2362   */\n      swap3\n      swap2\n      pop\n      pop\n      jump\t// out\n        /* \"#utility.yul\":2368:2719   */\n    tag_34:\n        /* \"#utility.yul\":2438:2444   */\n      0x00\n        /* \"#utility.yul\":2487:2489   */\n      0x20\n        /* \"#utility.yul\":2475:2484   */\n      dup3\n        /* \"#utility.yul\":2466:2473   */\n      dup5\n        /* \"#utility.yul\":2462:2485   */\n      sub\n        /* \"#utility.yul\":2458:2490   */\n      slt\n        /* \"#utility.yul\":2455:2574   */\n      iszero\n      tag_104\n      jumpi\n        /* \"#utility.yul\":2493:2572   */\n      tag_105\n      tag_54\n      jump\t// in\n    tag_105:\n        /* \"#utility.yul\":2455:2574   */\n    tag_104:\n        /* \"#utility.yul\":2613:2614   */\n      0x00\n        /* \"#utility.yul\":2638:2702   */\n      tag_106\n        /* \"#utility.yul\":2694:2701   */\n      dup5\n        /* \"#utility.yul\":2685:2691   */\n      dup3\n        /* \"#utility.yul\":2674:2683   */\n      dup6\n        /* \"#utility.yul\":2670:2692   */\n      add\n        /* \"#utility.yul\":2638:2702   */\n      tag_62\n      jump\t// in\n    tag_106:\n        /* \"#utility.yul\":2628:2702   */\n      swap2\n      pop\n        /* \"#utility.yul\":2584:2712   */\n      pop\n        /* \"#utility.yul\":2368:2719   */\n      swap3\n      swap2\n      pop\n      pop\n      jump\t// out\n        /* \"#utility.yul\":2725:2905   */\n    tag_63:\n        /* \"#utility.yul\":2773:2850   */\n      0x4e487b7100000000000000000000000000000000000000000000000000000000\n        /* \"#utility.yul\":2770:2771   */\n      0x00\n        /* \"#utility.yul\":2763:2851   */\n      mstore\n        /* \"#utility.yul\":2870:2874   */\n      0x11\n        /* \"#utility.yul\":2867:2868   */\n      0x04\n        /* \"#utility.yul\":2860:2875   */\n      mstore\n        /* \"#utility.yul\":2894:2898   */\n      0x24\n        /* \"#utility.yul\":2891:2892   */\n      0x00\n        /* \"#utility.yul\":2884:2899   */\n      revert\n        /* \"#utility.yul\":2911:3321   */\n    tag_38:\n        /* \"#utility.yul\":2951:2958   */\n      0x00\n        /* \"#utility.yul\":2974:2994   */\n      tag_109\n        /* \"#utility.yul\":2992:2993   */\n      dup3\n        /* \"#utility.yul\":2974:2994   */\n      tag_51\n      jump\t// in\n    tag_109:\n        /* \"#utility.yul\":2969:2994   */\n      swap2\n      pop\n        /* \"#utility.yul\":3008:3028   */\n      tag_110\n        /* \"#utility.yul\":3026:3027   */\n      dup4\n        /* \"#utility.yul\":3008:3028   */\n      tag_51\n      jump\t// in\n    tag_110:\n        /* \"#utility.yul\":3003:3028   */\n      swap3\n      pop\n        /* \"#utility.yul\":3063:3064   */\n      dup3\n        /* \"#utility.yul\":3060:3061   */\n      dup3\n        /* \"#utility.yul\":3056:3065   */\n      mul\n        /* \"#utility.yul\":3085:3115   */\n      tag_111\n        /* \"#utility.yul\":3103:3114   */\n      dup2\n        /* \"#utility.yul\":3085:3115   */\n      tag_51\n      jump\t// in\n    tag_111:\n        /* \"#utility.yul\":3074:3115   */\n      swap2\n      pop\n        /* \"#utility.yul\":3264:3265   */\n      dup3\n        /* \"#utility.yul\":3255:3262   */\n      dup3\n        /* \"#utility.yul\":3251:3266   */\n      div\n        /* \"#utility.yul\":3248:3249   */\n      dup5\n        /* \"#utility.yul\":3245:3267   */\n      eq\n        /* \"#utility.yul\":3225:3226   */\n      dup4\n        /* \"#utility.yul\":3218:3227   */\n      iszero\n        /* \"#utility.yul\":3198:3281   */\n      or\n        /* \"#utility.yul\":3175:3314   */\n      tag_112\n      jumpi\n        /* \"#utility.yul\":3294:3312   */\n      tag_113\n      tag_63\n      jump\t// in\n    tag_113:\n        /* \"#utility.yul\":3175:3314   */\n    tag_112:\n        /* \"#utility.yul\":2959:3321   */\n      pop\n        /* \"#utility.yul\":2911:3321   */\n      swap3\n      swap2\n      pop\n      pop\n      jump\t// out\n        /* \"#utility.yul\":3327:3507   */\n    tag_64:\n        /* \"#utility.yul\":3375:3452   */\n      0x4e487b7100000000000000000000000000000000000000000000000000000000\n        /* \"#utility.yul\":3372:3373   */\n      0x00\n        /* \"#utility.yul\":3365:3453   */\n      mstore\n        /* \"#utility.yul\":3472:3476   */\n      0x12\n        /* \"#utility.yul\":3469:3470   */\n      0x04\n        /* \"#utility.yul\":3462:3477   */\n      mstore\n        /* \"#utility.yul\":3496:3500   */\n      0x24\n        /* \"#utility.yul\":3493:3494   */\n      0x00\n        /* \"#utility.yul\":3486:3501   */\n      revert\n        /* \"#utility.yul\":3513:3698   */\n    tag_40:\n        /* \"#utility.yul\":3553:3554   */\n      0x00\n        /* \"#utility.yul\":3570:3590   */\n      tag_116\n        /* \"#utility.yul\":3588:3589   */\n      dup3\n        /* \"#utility.yul\":3570:3590   */\n      tag_51\n      jump\t// in\n    tag_116:\n        /* \"#utility.yul\":3565:3590   */\n      swap2\n      pop\n        /* \"#utility.yul\":3604:3624   */\n      tag_117\n        /* \"#utility.yul\":3622:3623   */\n      dup4\n        /* \"#utility.yul\":3604:3624   */\n      tag_51\n      jump\t// in\n    tag_117:\n        /* \"#utility.yul\":3599:3624   */\n      swap3\n      pop\n        /* \"#utility.yul\":3643:3644   */\n      dup3\n        /* \"#utility.yul\":3633:3668   */\n      tag_118\n      jumpi\n        /* \"#utility.yul\":3648:3666   */\n      tag_119\n      tag_64\n      jump\t// in\n    tag_119:\n        /* \"#utility.yul\":3633:3668   */\n    tag_118:\n        /* \"#utility.yul\":3690:3691   */\n      dup3\n        /* \"#utility.yul\":3687:3688   */\n      dup3\n        /* \"#utility.yul\":3683:3692   */\n      div\n        /* \"#utility.yul\":3678:3692   */\n      swap1\n      pop\n        /* \"#utility.yul\":3513:3698   */\n      swap3\n      swap2\n      pop\n      pop\n      jump\t// out\n        /* \"#utility.yul\":3704:3809   */\n    tag_65:\n        /* \"#utility.yul\":3740:3747   */\n      0x00\n        /* \"#utility.yul\":3780:3802   */\n      0xffffffffffffffffffff\n        /* \"#utility.yul\":3773:3778   */\n      dup3\n        /* \"#utility.yul\":3769:3803   */\n      and\n        /* \"#utility.yul\":3758:3803   */\n      swap1\n      pop\n        /* \"#utility.yul\":3704:3809   */\n      swap2\n      swap1\n      pop\n      jump\t// out\n        /* \"#utility.yul\":3815:3935   */\n    tag_66:\n        /* \"#utility.yul\":3887:3910   */\n      tag_122\n        /* \"#utility.yul\":3904:3909   */\n      dup2\n        /* \"#utility.yul\":3887:3910   */\n      tag_65\n      jump\t// in\n    tag_122:\n        /* \"#utility.yul\":3880:3885   */\n      dup2\n        /* \"#utility.yul\":3877:3911   */\n      eq\n        /* \"#utility.yul\":3867:3929   */\n      tag_123\n      jumpi\n        /* \"#utility.yul\":3925:3926   */\n      0x00\n        /* \"#utility.yul\":3922:3923   */\n      dup1\n        /* \"#utility.yul\":3915:3927   */\n      revert\n        /* \"#utility.yul\":3867:3929   */\n    tag_123:\n        /* \"#utility.yul\":3815:3935   */\n      pop\n      jump\t// out\n        /* \"#utility.yul\":3941:4082   */\n    tag_67:\n        /* \"#utility.yul\":3997:4002   */\n      0x00\n        /* \"#utility.yul\":4028:4034   */\n      dup2\n        /* \"#utility.yul\":4022:4035   */\n      mload\n        /* \"#utility.yul\":4013:4035   */\n      swap1\n      pop\n        /* \"#utility.yul\":4044:4076   */\n      tag_125\n        /* \"#utility.yul\":4070:4075   */\n      dup2\n        /* \"#utility.yul\":4044:4076   */\n      tag_66\n      jump\t// in\n    tag_125:\n        /* \"#utility.yul\":3941:4082   */\n      swap3\n      swap2\n      pop\n      pop\n      jump\t// out\n        /* \"#utility.yul\":4088:4164   */\n    tag_68:\n        /* \"#utility.yul\":4124:4131   */\n      0x00\n        /* \"#utility.yul\":4153:4158   */\n      dup2\n        /* \"#utility.yul\":4142:4158   */\n      swap1\n      pop\n        /* \"#utility.yul\":4088:4164   */\n      swap2\n      swap1\n      pop\n      jump\t// out\n        /* \"#utility.yul\":4170:4290   */\n    tag_69:\n        /* \"#utility.yul\":4242:4265   */\n      tag_128\n        /* \"#utility.yul\":4259:4264   */\n      dup2\n        /* \"#utility.yul\":4242:4265   */\n      tag_68\n      jump\t// in\n    tag_128:\n        /* \"#utility.yul\":4235:4240   */\n      dup2\n        /* \"#utility.yul\":4232:4266   */\n      eq\n        /* \"#utility.yul\":4222:4284   */\n      tag_129\n      jumpi\n        /* \"#utility.yul\":4280:4281   */\n      0x00\n        /* \"#utility.yul\":4277:4278   */\n      dup1\n        /* \"#utility.yul\":4270:4282   */\n      revert\n        /* \"#utility.yul\":4222:4284   */\n    tag_129:\n        /* \"#utility.yul\":4170:4290   */\n      pop\n      jump\t// out\n        /* \"#utility.yul\":4296:4437   */\n    tag_70:\n        /* \"#utility.yul\":4352:4357   */\n      0x00\n        /* \"#utility.yul\":4383:4389   */\n      dup2\n        /* \"#utility.yul\":4377:4390   */\n      mload\n        /* \"#utility.yul\":4368:4390   */\n      swap1\n      pop\n        /* \"#utility.yul\":4399:4431   */\n      tag_131\n        /* \"#utility.yul\":4425:4430   */\n      dup2\n        /* \"#utility.yul\":4399:4431   */\n      tag_69\n      jump\t// in\n    tag_131:\n        /* \"#utility.yul\":4296:4437   */\n      swap3\n      swap2\n      pop\n      pop\n      jump\t// out\n        /* \"#utility.yul\":4443:5414   */\n    tag_45:\n        /* \"#utility.yul\":4546:4552   */\n      0x00\n        /* \"#utility.yul\":4554:4560   */\n      dup1\n        /* \"#utility.yul\":4562:4568   */\n      0x00\n        /* \"#utility.yul\":4570:4576   */\n      dup1\n        /* \"#utility.yul\":4578:4584   */\n      0x00\n        /* \"#utility.yul\":4627:4630   */\n      0xa0\n        /* \"#utility.yul\":4615:4624   */\n      dup7\n        /* \"#utility.yul\":4606:4613   */\n      dup9\n        /* \"#utility.yul\":4602:4625   */\n      sub\n        /* \"#utility.yul\":4598:4631   */\n      slt\n        /* \"#utility.yul\":4595:4715   */\n      iszero\n      tag_133\n      jumpi\n        /* \"#utility.yul\":4634:4713   */\n      tag_134\n      tag_54\n      jump\t// in\n    tag_134:\n        /* \"#utility.yul\":4595:4715   */\n    tag_133:\n        /* \"#utility.yul\":4754:4755   */\n      0x00\n        /* \"#utility.yul\":4779:4842   */\n      tag_135\n        /* \"#utility.yul\":4834:4841   */\n      dup9\n        /* \"#utility.yul\":4825:4831   */\n      dup3\n        /* \"#utility.yul\":4814:4823   */\n      dup10\n        /* \"#utility.yul\":4810:4832   */\n      add\n        /* \"#utility.yul\":4779:4842   */\n      tag_67\n      jump\t// in\n    tag_135:\n        /* \"#utility.yul\":4769:4842   */\n      swap6\n      pop\n        /* \"#utility.yul\":4725:4852   */\n      pop\n        /* \"#utility.yul\":4891:4893   */\n      0x20\n        /* \"#utility.yul\":4917:4980   */\n      tag_136\n        /* \"#utility.yul\":4972:4979   */\n      dup9\n        /* \"#utility.yul\":4963:4969   */\n      dup3\n        /* \"#utility.yul\":4952:4961   */\n      dup10\n        /* \"#utility.yul\":4948:4970   */\n      add\n        /* \"#utility.yul\":4917:4980   */\n      tag_70\n      jump\t// in\n    tag_136:\n        /* \"#utility.yul\":4907:4980   */\n      swap5\n      pop\n        /* \"#utility.yul\":4862:4990   */\n      pop\n        /* \"#utility.yul\":5029:5031   */\n      0x40\n        /* \"#utility.yul\":5055:5119   */\n      tag_137\n        /* \"#utility.yul\":5111:5118   */\n      dup9\n        /* \"#utility.yul\":5102:5108   */\n      dup3\n        /* \"#utility.yul\":5091:5100   */\n      dup10\n        /* \"#utility.yul\":5087:5109   */\n      add\n        /* \"#utility.yul\":5055:5119   */\n      tag_62\n      jump\t// in\n    tag_137:\n        /* \"#utility.yul\":5045:5119   */\n      swap4\n      pop\n        /* \"#utility.yul\":5000:5129   */\n      pop\n        /* \"#utility.yul\":5168:5170   */\n      0x60\n        /* \"#utility.yul\":5194:5258   */\n      tag_138\n        /* \"#utility.yul\":5250:5257   */\n      dup9\n        /* \"#utility.yul\":5241:5247   */\n      dup3\n        /* \"#utility.yul\":5230:5239   */\n      dup10\n        /* \"#utility.yul\":5226:5248   */\n      add\n        /* \"#utility.yul\":5194:5258   */\n      tag_62\n      jump\t// in\n    tag_138:\n        /* \"#utility.yul\":5184:5258   */\n      swap3\n      pop\n        /* \"#utility.yul\":5139:5268   */\n      pop\n        /* \"#utility.yul\":5307:5310   */\n      0x80\n        /* \"#utility.yul\":5334:5397   */\n      tag_139\n        /* \"#utility.yul\":5389:5396   */\n      dup9\n        /* \"#utility.yul\":5380:5386   */\n      dup3\n        /* \"#utility.yul\":5369:5378   */\n      dup10\n        /* \"#utility.yul\":5365:5387   */\n      add\n        /* \"#utility.yul\":5334:5397   */\n      tag_67\n      jump\t// in\n    tag_139:\n        /* \"#utility.yul\":5324:5397   */\n      swap2\n      pop\n        /* \"#utility.yul\":5278:5407   */\n      pop\n        /* \"#utility.yul\":4443:5414   */\n      swap3\n      swap6\n      pop\n      swap3\n      swap6\n      swap1\n      swap4\n      pop\n      jump\t// out\n        /* \"#utility.yul\":5420:5976   */\n    tag_47:\n        /* \"#utility.yul\":5459:5466   */\n      0x00\n        /* \"#utility.yul\":5482:5501   */\n      tag_141\n        /* \"#utility.yul\":5499:5500   */\n      dup3\n        /* \"#utility.yul\":5482:5501   */\n      tag_68\n      jump\t// in\n    tag_141:\n        /* \"#utility.yul\":5477:5501   */\n      swap2\n      pop\n        /* \"#utility.yul\":5515:5534   */\n      tag_142\n        /* \"#utility.yul\":5532:5533   */\n      dup4\n        /* \"#utility.yul\":5515:5534   */\n      tag_68\n      jump\t// in\n    tag_142:\n        /* \"#utility.yul\":5510:5534   */\n      swap3\n      pop\n        /* \"#utility.yul\":5569:5570   */\n      dup3\n        /* \"#utility.yul\":5566:5567   */\n      dup3\n        /* \"#utility.yul\":5562:5571   */\n      mul\n        /* \"#utility.yul\":5591:5620   */\n      tag_143\n        /* \"#utility.yul\":5608:5619   */\n      dup2\n        /* \"#utility.yul\":5591:5620   */\n      tag_68\n      jump\t// in\n    tag_143:\n        /* \"#utility.yul\":5580:5620   */\n      swap2\n      pop\n        /* \"#utility.yul\":5678:5744   */\n      0x8000000000000000000000000000000000000000000000000000000000000000\n        /* \"#utility.yul\":5675:5676   */\n      dup5\n        /* \"#utility.yul\":5672:5745   */\n      eq\n        /* \"#utility.yul\":5668:5669   */\n      0x00\n        /* \"#utility.yul\":5665:5666   */\n      dup5\n        /* \"#utility.yul\":5661:5670   */\n      slt\n        /* \"#utility.yul\":5657:5746   */\n      and\n        /* \"#utility.yul\":5654:5769   */\n      iszero\n      tag_144\n      jumpi\n        /* \"#utility.yul\":5749:5767   */\n      tag_145\n      tag_63\n      jump\t// in\n    tag_145:\n        /* \"#utility.yul\":5654:5769   */\n    tag_144:\n        /* \"#utility.yul\":5919:5920   */\n      dup3\n        /* \"#utility.yul\":5910:5917   */\n      dup3\n        /* \"#utility.yul\":5905:5921   */\n      sdiv\n        /* \"#utility.yul\":5902:5903   */\n      dup5\n        /* \"#utility.yul\":5899:5922   */\n      eq\n        /* \"#utility.yul\":5879:5880   */\n      dup4\n        /* \"#utility.yul\":5872:5881   */\n      iszero\n        /* \"#utility.yul\":5852:5936   */\n      or\n        /* \"#utility.yul\":5829:5969   */\n      tag_146\n      jumpi\n        /* \"#utility.yul\":5949:5967   */\n      tag_147\n      tag_63\n      jump\t// in\n    tag_147:\n        /* \"#utility.yul\":5829:5969   */\n    tag_146:\n        /* \"#utility.yul\":5467:5976   */\n      pop\n        /* \"#utility.yul\":5420:5976   */\n      swap3\n      swap2\n      pop\n      pop\n      jump\t// out\n        /* \"#utility.yul\":5982:6173   */\n    tag_50:\n        /* \"#utility.yul\":6022:6025   */\n      0x00\n        /* \"#utility.yul\":6041:6061   */\n      tag_149\n        /* \"#utility.yul\":6059:6060   */\n      dup3\n        /* \"#utility.yul\":6041:6061   */\n      tag_51\n      jump\t// in\n    tag_149:\n        /* \"#utility.yul\":6036:6061   */\n      swap2\n      pop\n        /* \"#utility.yul\":6075:6095   */\n      tag_150\n        /* \"#utility.yul\":6093:6094   */\n      dup4\n        /* \"#utility.yul\":6075:6095   */\n      tag_51\n      jump\t// in\n    tag_150:\n        /* \"#utility.yul\":6070:6095   */\n      swap3\n      pop\n        /* \"#utility.yul\":6118:6119   */\n      dup3\n        /* \"#utility.yul\":6115:6116   */\n      dup3\n        /* \"#utility.yul\":6111:6120   */\n      add\n        /* \"#utility.yul\":6104:6120   */\n      swap1\n      pop\n        /* \"#utility.yul\":6139:6142   */\n      dup1\n        /* \"#utility.yul\":6136:6137   */\n      dup3\n        /* \"#utility.yul\":6133:6143   */\n      gt\n        /* \"#utility.yul\":6130:6166   */\n      iszero\n      tag_151\n      jumpi\n        /* \"#utility.yul\":6146:6164   */\n      tag_152\n      tag_63\n      jump\t// in\n    tag_152:\n        /* \"#utility.yul\":6130:6166   */\n    tag_151:\n        /* \"#utility.yul\":5982:6173   */\n      swap3\n      swap2\n      pop\n      pop\n      jump\t// out\n\n    auxdata: 0xa26469706673582212205d38c43d2e5aa702f8bcfc7ace5af165b169069141149a45e006772de62fd92764736f6c63430008160033\n}\n",
				"bytecode": {
					"linkReferences": {},
					"object": "608060405234801561000f575f80fd5b506106d58061001d5f395ff3fe608060405260043610610049575f3560e01c80630d8e6e2c1461004d5780633e47d6f3146100775780636e5b6b28146100b357806398d5fdca146100ef578063b60d428814610119575b5f80fd5b348015610058575f80fd5b50610061610123565b60405161006e919061030c565b60405180910390f35b348015610082575f80fd5b5061009d60048036038101906100989190610383565b6101af565b6040516100aa919061030c565b60405180910390f35b3480156100be575f80fd5b506100d960048036038101906100d491906103d8565b6101c3565b6040516100e6919061030c565b60405180910390f35b3480156100fa575f80fd5b506101036101fb565b604051610110919061030c565b60405180910390f35b6101216102a0565b005b5f8073694aa1769357215de4fac081bf1f309adc32530690508073ffffffffffffffffffffffffffffffffffffffff166354fd4d506040518163ffffffff1660e01b8152600401602060405180830381865afa158015610185573d5f803e3d5ffd5b505050506040513d601f19601f820116820180604052508101906101a99190610417565b91505090565b5f602052805f5260405f205f915090505481565b5f806101cd6101fb565b90505f670de0b6b3a764000084836101e5919061046f565b6101ef91906104dd565b90508092505050919050565b5f8073694aa1769357215de4fac081bf1f309adc32530690505f8173ffffffffffffffffffffffffffffffffffffffff1663feaf968c6040518163ffffffff1660e01b815260040160a060405180830381865afa15801561025e573d5f803e3d5ffd5b505050506040513d601f19601f82011682018060405250810190610282919061057f565b5050509150506402540be4008161029991906105f6565b9250505090565b345f803373ffffffffffffffffffffffffffffffffffffffff1673ffffffffffffffffffffffffffffffffffffffff1681526020019081526020015f205f8282546102eb919061066c565b92505081905550565b5f819050919050565b610306816102f4565b82525050565b5f60208201905061031f5f8301846102fd565b92915050565b5f80fd5b5f73ffffffffffffffffffffffffffffffffffffffff82169050919050565b5f61035282610329565b9050919050565b61036281610348565b811461036c575f80fd5b50565b5f8135905061037d81610359565b92915050565b5f6020828403121561039857610397610325565b5b5f6103a58482850161036f565b91505092915050565b6103b7816102f4565b81146103c1575f80fd5b50565b5f813590506103d2816103ae565b92915050565b5f602082840312156103ed576103ec610325565b5b5f6103fa848285016103c4565b91505092915050565b5f81519050610411816103ae565b92915050565b5f6020828403121561042c5761042b610325565b5b5f61043984828501610403565b91505092915050565b7f4e487b71000000000000000000000000000000000000000000000000000000005f52601160045260245ffd5b5f610479826102f4565b9150610484836102f4565b9250828202610492816102f4565b915082820484148315176104a9576104a8610442565b5b5092915050565b7f4e487b71000000000000000000000000000000000000000000000000000000005f52601260045260245ffd5b5f6104e7826102f4565b91506104f2836102f4565b925082610502576105016104b0565b5b828204905092915050565b5f69ffffffffffffffffffff82169050919050565b61052b8161050d565b8114610535575f80fd5b50565b5f8151905061054681610522565b92915050565b5f819050919050565b61055e8161054c565b8114610568575f80fd5b50565b5f8151905061057981610555565b92915050565b5f805f805f60a0868803121561059857610597610325565b5b5f6105a588828901610538565b95505060206105b68882890161056b565b94505060406105c788828901610403565b93505060606105d888828901610403565b92505060806105e988828901610538565b9150509295509295909350565b5f6106008261054c565b915061060b8361054c565b92508282026106198161054c565b91507f800000000000000000000000000000000000000000000000000000000000000084145f841216156106505761064f610442565b5b828205841483151761066557610664610442565b5b5092915050565b5f610676826102f4565b9150610681836102f4565b925082820190508082111561069957610698610442565b5b9291505056fea26469706673582212205d38c43d2e5aa702f8bcfc7ace5af165b169069141149a45e006772de62fd92764736f6c63430008160033",
					"opcodes": "PUSH1 0x80 PUSH1 0x40 MSTORE CALLVALUE DUP1 ISZERO PUSH2 0xF JUMPI PUSH0 DUP1 REVERT JUMPDEST POP PUSH2 0x6D5 DUP1 PUSH2 0x1D PUSH0 CODECOPY PUSH0 RETURN INVALID PUSH1 0x80 PUSH1 0x40 MSTORE PUSH1 0x4 CALLDATASIZE LT PUSH2 0x49 JUMPI PUSH0 CALLDATALOAD PUSH1 0xE0 SHR DUP1 PUSH4 0xD8E6E2C EQ PUSH2 0x4D JUMPI DUP1 PUSH4 0x3E47D6F3 EQ PUSH2 0x77 JUMPI DUP1 PUSH4 0x6E5B6B28 EQ PUSH2 0xB3 JUMPI DUP1 PUSH4 0x98D5FDCA EQ PUSH2 0xEF JUMPI DUP1 PUSH4 0xB60D4288 EQ PUSH2 0x119 JUMPI JUMPDEST PUSH0 DUP1 REVERT JUMPDEST CALLVALUE DUP1 ISZERO PUSH2 0x58 JUMPI PUSH0 DUP1 REVERT JUMPDEST POP PUSH2 0x61 PUSH2 0x123 JUMP JUMPDEST PUSH1 0x40 MLOAD PUSH2 0x6E SWAP2 SWAP1 PUSH2 0x30C JUMP JUMPDEST PUSH1 0x40 MLOAD DUP1 SWAP2 SUB SWAP1 RETURN JUMPDEST CALLVALUE DUP1 ISZERO PUSH2 0x82 JUMPI PUSH0 DUP1 REVERT JUMPDEST POP PUSH2 0x9D PUSH1 0x4 DUP1 CALLDATASIZE SUB DUP2 ADD SWAP1 PUSH2 0x98 SWAP2 SWAP1 PUSH2 0x383 JUMP JUMPDEST PUSH2 0x1AF JUMP JUMPDEST PUSH1 0x40 MLOAD PUSH2 0xAA SWAP2 SWAP1 PUSH2 0x30C JUMP JUMPDEST PUSH1 0x40 MLOAD DUP1 SWAP2 SUB SWAP1 RETURN JUMPDEST CALLVALUE DUP1 ISZERO PUSH2 0xBE JUMPI PUSH0 DUP1 REVERT JUMPDEST POP PUSH2 0xD9 PUSH1 0x4 DUP1 CALLDATASIZE SUB DUP2 ADD SWAP1 PUSH2 0xD4 SWAP2 SWAP1 PUSH2 0x3D8 JUMP JUMPDEST PUSH2 0x1C3 JUMP JUMPDEST PUSH1 0x40 MLOAD PUSH2 0xE6 SWAP2 SWAP1 PUSH2 0x30C JUMP JUMPDEST PUSH1 0x40 MLOAD DUP1 SWAP2 SUB SWAP1 RETURN JUMPDEST CALLVALUE DUP1 ISZERO PUSH2 0xFA JUMPI PUSH0 DUP1 REVERT JUMPDEST POP PUSH2 0x103 PUSH2 0x1FB JUMP JUMPDEST PUSH1 0x40 MLOAD PUSH2 0x110 SWAP2 SWAP1 PUSH2 0x30C JUMP JUMPDEST PUSH1 0x40 MLOAD DUP1 SWAP2 SUB SWAP1 RETURN JUMPDEST PUSH2 0x121 PUSH2 0x2A0 JUMP JUMPDEST STOP JUMPDEST PUSH0 DUP1 PUSH20 0x694AA1769357215DE4FAC081BF1F309ADC325306 SWAP1 POP DUP1 PUSH20 0xFFFFFFFFFFFFFFFFFFFFFFFFFFFFFFFFFFFFFFFF AND PUSH4 0x54FD4D50 PUSH1 0x40 MLOAD DUP2 PUSH4 0xFFFFFFFF AND PUSH1 0xE0 SHL DUP2 MSTORE PUSH1 0x4 ADD PUSH1 0x20 PUSH1 0x40 MLOAD DUP1 DUP4 SUB DUP2 DUP7 GAS STATICCALL ISZERO DUP1 ISZERO PUSH2 0x185 JUMPI RETURNDATASIZE PUSH0 DUP1 RETURNDATACOPY RETURNDATASIZE PUSH0 REVERT JUMPDEST POP POP POP POP PUSH1 0x40 MLOAD RETURNDATASIZE PUSH1 0x1F NOT PUSH1 0x1F DUP3 ADD AND DUP3 ADD DUP1 PUSH1 0x40 MSTORE POP DUP2 ADD SWAP1 PUSH2 0x1A9 SWAP2 SWAP1 PUSH2 0x417 JUMP JUMPDEST SWAP2 POP POP SWAP1 JUMP JUMPDEST PUSH0 PUSH1 0x20 MSTORE DUP1 PUSH0 MSTORE PUSH1 0x40 PUSH0 KECCAK256 PUSH0 SWAP2 POP SWAP1 POP SLOAD DUP2 JUMP JUMPDEST PUSH0 DUP1 PUSH2 0x1CD PUSH2 0x1FB JUMP JUMPDEST SWAP1 POP PUSH0 PUSH8 0xDE0B6B3A7640000 DUP5 DUP4 PUSH2 0x1E5 SWAP2 SWAP1 PUSH2 0x46F JUMP JUMPDEST PUSH2 0x1EF SWAP2 SWAP1 PUSH2 0x4DD JUMP JUMPDEST SWAP1 POP DUP1 SWAP3 POP POP POP SWAP2 SWAP1 POP JUMP JUMPDEST PUSH0 DUP1 PUSH20 0x694AA1769357215DE4FAC081BF1F309ADC325306 SWAP1 POP PUSH0 DUP2 PUSH20 0xFFFFFFFFFFFFFFFFFFFFFFFFFFFFFFFFFFFFFFFF AND PUSH4 0xFEAF968C PUSH1 0x40 MLOAD DUP2 PUSH4 0xFFFFFFFF AND PUSH1 0xE0 SHL DUP2 MSTORE PUSH1 0x4 ADD PUSH1 0xA0 PUSH1 0x40 MLOAD DUP1 DUP4 SUB DUP2 DUP7 GAS STATICCALL ISZERO DUP1 ISZERO PUSH2 0x25E JUMPI RETURNDATASIZE PUSH0 DUP1 RETURNDATACOPY RETURNDATASIZE PUSH0 REVERT JUMPDEST POP POP POP POP PUSH1 0x40 MLOAD RETURNDATASIZE PUSH1 0x1F NOT PUSH1 0x1F DUP3 ADD AND DUP3 ADD DUP1 PUSH1 0x40 MSTORE POP DUP2 ADD SWAP1 PUSH2 0x282 SWAP2 SWAP1 PUSH2 0x57F JUMP JUMPDEST POP POP POP SWAP2 POP POP PUSH5 0x2540BE400 DUP2 PUSH2 0x299 SWAP2 SWAP1 PUSH2 0x5F6 JUMP JUMPDEST SWAP3 POP POP POP SWAP1 JUMP JUMPDEST CALLVALUE PUSH0 DUP1 CALLER PUSH20 0xFFFFFFFFFFFFFFFFFFFFFFFFFFFFFFFFFFFFFFFF AND PUSH20 0xFFFFFFFFFFFFFFFFFFFFFFFFFFFFFFFFFFFFFFFF AND DUP2 MSTORE PUSH1 0x20 ADD SWAP1 DUP2 MSTORE PUSH1 0x20 ADD PUSH0 KECCAK256 PUSH0 DUP3 DUP3 SLOAD PUSH2 0x2EB SWAP2 SWAP1 PUSH2 0x66C JUMP JUMPDEST SWAP3 POP POP DUP2 SWAP1 SSTORE POP JUMP JUMPDEST PUSH0 DUP2 SWAP1 POP SWAP2 SWAP1 POP JUMP JUMPDEST PUSH2 0x306 DUP2 PUSH2 0x2F4 JUMP JUMPDEST DUP3 MSTORE POP POP JUMP JUMPDEST PUSH0 PUSH1 0x20 DUP3 ADD SWAP1 POP PUSH2 0x31F PUSH0 DUP4 ADD DUP5 PUSH2 0x2FD JUMP JUMPDEST SWAP3 SWAP2 POP POP JUMP JUMPDEST PUSH0 DUP1 REVERT JUMPDEST PUSH0 PUSH20 0xFFFFFFFFFFFFFFFFFFFFFFFFFFFFFFFFFFFFFFFF DUP3 AND SWAP1 POP SWAP2 SWAP1 POP JUMP JUMPDEST PUSH0 PUSH2 0x352 DUP3 PUSH2 0x329 JUMP JUMPDEST SWAP1 POP SWAP2 SWAP1 POP JUMP JUMPDEST PUSH2 0x362 DUP2 PUSH2 0x348 JUMP JUMPDEST DUP2 EQ PUSH2 0x36C JUMPI PUSH0 DUP1 REVERT JUMPDEST POP JUMP JUMPDEST PUSH0 DUP2 CALLDATALOAD SWAP1 POP PUSH2 0x37D DUP2 PUSH2 0x359 JUMP JUMPDEST SWAP3 SWAP2 POP POP JUMP JUMPDEST PUSH0 PUSH1 0x20 DUP3 DUP5 SUB SLT ISZERO PUSH2 0x398 JUMPI PUSH2 0x397 PUSH2 0x325 JUMP JUMPDEST JUMPDEST PUSH0 PUSH2 0x3A5 DUP5 DUP3 DUP6 ADD PUSH2 0x36F JUMP JUMPDEST SWAP2 POP POP SWAP3 SWAP2 POP POP JUMP JUMPDEST PUSH2 0x3B7 DUP2 PUSH2 0x2F4 JUMP JUMPDEST DUP2 EQ PUSH2 0x3C1 JUMPI PUSH0 DUP1 REVERT JUMPDEST POP JUMP JUMPDEST PUSH0 DUP2 CALLDATALOAD SWAP1 POP PUSH2 0x3D2 DUP2 PUSH2 0x3AE JUMP JUMPDEST SWAP3 SWAP2 POP POP JUMP JUMPDEST PUSH0 PUSH1 0x20 DUP3 DUP5 SUB SLT ISZERO PUSH2 0x3ED JUMPI PUSH2 0x3EC PUSH2 0x325 JUMP JUMPDEST JUMPDEST PUSH0 PUSH2 0x3FA DUP5 DUP3 DUP6 ADD PUSH2 0x3C4 JUMP JUMPDEST SWAP2 POP POP SWAP3 SWAP2 POP POP JUMP JUMPDEST PUSH0 DUP2 MLOAD SWAP1 POP PUSH2 0x411 DUP2 PUSH2 0x3AE JUMP JUMPDEST SWAP3 SWAP2 POP POP JUMP JUMPDEST PUSH0 PUSH1 0x20 DUP3 DUP5 SUB SLT ISZERO PUSH2 0x42C JUMPI PUSH2 0x42B PUSH2 0x325 JUMP JUMPDEST JUMPDEST PUSH0 PUSH2 0x439 DUP5 DUP3 DUP6 ADD PUSH2 0x403 JUMP JUMPDEST SWAP2 POP POP SWAP3 SWAP2 POP POP JUMP JUMPDEST PUSH32 0x4E487B7100000000000000000000000000000000000000000000000000000000 PUSH0 MSTORE PUSH1 0x11 PUSH1 0x4 MSTORE PUSH1 0x24 PUSH0 REVERT JUMPDEST PUSH0 PUSH2 0x479 DUP3 PUSH2 0x2F4 JUMP JUMPDEST SWAP2 POP PUSH2 0x484 DUP4 PUSH2 0x2F4 JUMP JUMPDEST SWAP3 POP DUP3 DUP3 MUL PUSH2 0x492 DUP2 PUSH2 0x2F4 JUMP JUMPDEST SWAP2 POP DUP3 DUP3 DIV DUP5 EQ DUP4 ISZERO OR PUSH2 0x4A9 JUMPI PUSH2 0x4A8 PUSH2 0x442 JUMP JUMPDEST JUMPDEST POP SWAP3 SWAP2 POP POP JUMP JUMPDEST PUSH32 0x4E487B7100000000000000000000000000000000000000000000000000000000 PUSH0 MSTORE PUSH1 0x12 PUSH1 0x4 MSTORE PUSH1 0x24 PUSH0 REVERT JUMPDEST PUSH0 PUSH2 0x4E7 DUP3 PUSH2 0x2F4 JUMP JUMPDEST SWAP2 POP PUSH2 0x4F2 DUP4 PUSH2 0x2F4 JUMP JUMPDEST SWAP3 POP DUP3 PUSH2 0x502 JUMPI PUSH2 0x501 PUSH2 0x4B0 JUMP JUMPDEST JUMPDEST DUP3 DUP3 DIV SWAP1 POP SWAP3 SWAP2 POP POP JUMP JUMPDEST PUSH0 PUSH10 0xFFFFFFFFFFFFFFFFFFFF DUP3 AND SWAP1 POP SWAP2 SWAP1 POP JUMP JUMPDEST PUSH2 0x52B DUP2 PUSH2 0x50D JUMP JUMPDEST DUP2 EQ PUSH2 0x535 JUMPI PUSH0 DUP1 REVERT JUMPDEST POP JUMP JUMPDEST PUSH0 DUP2 MLOAD SWAP1 POP PUSH2 0x546 DUP2 PUSH2 0x522 JUMP JUMPDEST SWAP3 SWAP2 POP POP JUMP JUMPDEST PUSH0 DUP2 SWAP1 POP SWAP2 SWAP1 POP JUMP JUMPDEST PUSH2 0x55E DUP2 PUSH2 0x54C JUMP JUMPDEST DUP2 EQ PUSH2 0x568 JUMPI PUSH0 DUP1 REVERT JUMPDEST POP JUMP JUMPDEST PUSH0 DUP2 MLOAD SWAP1 POP PUSH2 0x579 DUP2 PUSH2 0x555 JUMP JUMPDEST SWAP3 SWAP2 POP POP JUMP JUMPDEST PUSH0 DUP1 PUSH0 DUP1 PUSH0 PUSH1 0xA0 DUP7 DUP9 SUB SLT ISZERO PUSH2 0x598 JUMPI PUSH2 0x597 PUSH2 0x325 JUMP JUMPDEST JUMPDEST PUSH0 PUSH2 0x5A5 DUP9 DUP3 DUP10 ADD PUSH2 0x538 JUMP JUMPDEST SWAP6 POP POP PUSH1 0x20 PUSH2 0x5B6 DUP9 DUP3 DUP10 ADD PUSH2 0x56B JUMP JUMPDEST SWAP5 POP POP PUSH1 0x40 PUSH2 0x5C7 DUP9 DUP3 DUP10 ADD PUSH2 0x403 JUMP JUMPDEST SWAP4 POP POP PUSH1 0x60 PUSH2 0x5D8 DUP9 DUP3 DUP10 ADD PUSH2 0x403 JUMP JUMPDEST SWAP3 POP POP PUSH1 0x80 PUSH2 0x5E9 DUP9 DUP3 DUP10 ADD PUSH2 0x538 JUMP JUMPDEST SWAP2 POP POP SWAP3 SWAP6 POP SWAP3 SWAP6 SWAP1 SWAP4 POP JUMP JUMPDEST PUSH0 PUSH2 0x600 DUP3 PUSH2 0x54C JUMP JUMPDEST SWAP2 POP PUSH2 0x60B DUP4 PUSH2 0x54C JUMP JUMPDEST SWAP3 POP DUP3 DUP3 MUL PUSH2 0x619 DUP2 PUSH2 0x54C JUMP JUMPDEST SWAP2 POP PUSH32 0x8000000000000000000000000000000000000000000000000000000000000000 DUP5 EQ PUSH0 DUP5 SLT AND ISZERO PUSH2 0x650 JUMPI PUSH2 0x64F PUSH2 0x442 JUMP JUMPDEST JUMPDEST DUP3 DUP3 SDIV DUP5 EQ DUP4 ISZERO OR PUSH2 0x665 JUMPI PUSH2 0x664 PUSH2 0x442 JUMP JUMPDEST JUMPDEST POP SWAP3 SWAP2 POP POP JUMP JUMPDEST PUSH0 PUSH2 0x676 DUP3 PUSH2 0x2F4 JUMP JUMPDEST SWAP2 POP PUSH2 0x681 DUP4 PUSH2 0x2F4 JUMP JUMPDEST SWAP3 POP DUP3 DUP3 ADD SWAP1 POP DUP1 DUP3 GT ISZERO PUSH2 0x699 JUMPI PUSH2 0x698 PUSH2 0x442 JUMP JUMPDEST JUMPDEST SWAP3 SWAP2 POP POP JUMP INVALID LOG2 PUSH5 0x6970667358 0x22 SLT KECCAK256 0x5D CODESIZE 0xC4 RETURNDATASIZE 0x2E GAS 0xA7 MUL 0xF8 0xBC 0xFC PUSH27 0xCE5AF165B169069141149A45E006772DE62FD92764736F6C634300 ADDMOD AND STOP CALLER "
				},
				"gasEstimates": {
					"creation": {
						"codeDepositCost": "349800",
						"executionCost": "384",
						"totalCost": "350184"
					},
					"external": {
						"addressToAmountFunded(address)": "2801",
						"fund()": "infinite",
						"getConversionRate(uint256)": "infinite",
						"getPrice()": "infinite",
						"getVersion()": "infinite"
					}
				},
				"methodIdentifiers": {
					"addressToAmountFunded(address)": "3e47d6f3",
					"fund()": "b60d4288",
					"getConversionRate(uint256)": "6e5b6b28",
					"getPrice()": "98d5fdca",
					"getVersion()": "0d8e6e2c"
				}
			},
			"storageLayout": {
				"storage": [
					{
						"astId": 49,
						"contract": "contracts/fundMe.sol:FundMe",
						"label": "addressToAmountFunded",
						"offset": 0,
						"slot": "0",
						"type": "t_mapping(t_address,t_uint256)"
					}
				],
				"types": {
					"t_address": {
						"encoding": "inplace",
						"label": "address",
						"numberOfBytes": "20"
					},
					"t_mapping(t_address,t_uint256)": {
						"encoding": "mapping",
						"key": "t_address",
						"label": "mapping(address => uint256)",
						"numberOfBytes": "32",
						"value": "t_uint256"
					},
					"t_uint256": {
						"encoding": "inplace",
						"label": "uint256",
						"numberOfBytes": "32"
					}
				}
			},
			"userdoc": {
				"kind": "user",
				"methods": {},
				"version": 1
			}
		}
	}
}